{
  "_format": "hh-sol-artifact-1",
  "contractName": "NFTContract",
  "sourceName": "contracts/NFTContract.sol",
  "abi": [
    {
      "inputs": [
        {
          "internalType": "uint256",
          "name": "n",
          "type": "uint256"
        },
        {
          "internalType": "string",
          "name": "meta_ipfs",
          "type": "string"
        }
      ],
      "stateMutability": "nonpayable",
      "type": "constructor"
    },
    {
      "anonymous": false,
      "inputs": [
        {
          "indexed": true,
          "internalType": "address",
          "name": "account",
          "type": "address"
        },
        {
          "indexed": true,
          "internalType": "address",
          "name": "operator",
          "type": "address"
        },
        {
          "indexed": false,
          "internalType": "bool",
          "name": "approved",
          "type": "bool"
        }
      ],
      "name": "ApprovalForAll",
      "type": "event"
    },
    {
      "anonymous": false,
      "inputs": [
        {
          "indexed": true,
          "internalType": "address",
          "name": "previousOwner",
          "type": "address"
        },
        {
          "indexed": true,
          "internalType": "address",
          "name": "newOwner",
          "type": "address"
        }
      ],
      "name": "OwnershipTransferred",
      "type": "event"
    },
    {
      "anonymous": false,
      "inputs": [
        {
          "indexed": true,
          "internalType": "address",
          "name": "operator",
          "type": "address"
        },
        {
          "indexed": true,
          "internalType": "address",
          "name": "from",
          "type": "address"
        },
        {
          "indexed": true,
          "internalType": "address",
          "name": "to",
          "type": "address"
        },
        {
          "indexed": false,
          "internalType": "uint256[]",
          "name": "ids",
          "type": "uint256[]"
        },
        {
          "indexed": false,
          "internalType": "uint256[]",
          "name": "values",
          "type": "uint256[]"
        }
      ],
      "name": "TransferBatch",
      "type": "event"
    },
    {
      "anonymous": false,
      "inputs": [
        {
          "indexed": true,
          "internalType": "address",
          "name": "operator",
          "type": "address"
        },
        {
          "indexed": true,
          "internalType": "address",
          "name": "from",
          "type": "address"
        },
        {
          "indexed": true,
          "internalType": "address",
          "name": "to",
          "type": "address"
        },
        {
          "indexed": false,
          "internalType": "uint256",
          "name": "id",
          "type": "uint256"
        },
        {
          "indexed": false,
          "internalType": "uint256",
          "name": "value",
          "type": "uint256"
        }
      ],
      "name": "TransferSingle",
      "type": "event"
    },
    {
      "anonymous": false,
      "inputs": [
        {
          "indexed": false,
          "internalType": "string",
          "name": "value",
          "type": "string"
        },
        {
          "indexed": true,
          "internalType": "uint256",
          "name": "id",
          "type": "uint256"
        }
      ],
      "name": "URI",
      "type": "event"
    },
    {
      "inputs": [
        {
          "internalType": "address",
          "name": "account",
          "type": "address"
        },
        {
          "internalType": "uint256",
          "name": "id",
          "type": "uint256"
        }
      ],
      "name": "balanceOf",
      "outputs": [
        {
          "internalType": "uint256",
          "name": "",
          "type": "uint256"
        }
      ],
      "stateMutability": "view",
      "type": "function"
    },
    {
      "inputs": [
        {
          "internalType": "address[]",
          "name": "accounts",
          "type": "address[]"
        },
        {
          "internalType": "uint256[]",
          "name": "ids",
          "type": "uint256[]"
        }
      ],
      "name": "balanceOfBatch",
      "outputs": [
        {
          "internalType": "uint256[]",
          "name": "",
          "type": "uint256[]"
        }
      ],
      "stateMutability": "view",
      "type": "function"
    },
    {
      "inputs": [
        {
          "internalType": "address",
          "name": "account",
          "type": "address"
        },
        {
          "internalType": "address",
          "name": "operator",
          "type": "address"
        }
      ],
      "name": "isApprovedForAll",
      "outputs": [
        {
          "internalType": "bool",
          "name": "",
          "type": "bool"
        }
      ],
      "stateMutability": "view",
      "type": "function"
    },
    {
      "inputs": [],
      "name": "owner",
      "outputs": [
        {
          "internalType": "address",
          "name": "",
          "type": "address"
        }
      ],
      "stateMutability": "view",
      "type": "function"
    },
    {
      "inputs": [],
      "name": "renounceOwnership",
      "outputs": [],
      "stateMutability": "nonpayable",
      "type": "function"
    },
    {
      "inputs": [
        {
          "internalType": "address",
          "name": "from",
          "type": "address"
        },
        {
          "internalType": "address",
          "name": "to",
          "type": "address"
        },
        {
          "internalType": "uint256[]",
          "name": "ids",
          "type": "uint256[]"
        },
        {
          "internalType": "uint256[]",
          "name": "amounts",
          "type": "uint256[]"
        },
        {
          "internalType": "bytes",
          "name": "data",
          "type": "bytes"
        }
      ],
      "name": "safeBatchTransferFrom",
      "outputs": [],
      "stateMutability": "nonpayable",
      "type": "function"
    },
    {
      "inputs": [
        {
          "internalType": "address",
          "name": "from",
          "type": "address"
        },
        {
          "internalType": "address",
          "name": "to",
          "type": "address"
        },
        {
          "internalType": "uint256",
          "name": "id",
          "type": "uint256"
        },
        {
          "internalType": "uint256",
          "name": "amount",
          "type": "uint256"
        },
        {
          "internalType": "bytes",
          "name": "data",
          "type": "bytes"
        }
      ],
      "name": "safeTransferFrom",
      "outputs": [],
      "stateMutability": "nonpayable",
      "type": "function"
    },
    {
      "inputs": [
        {
          "internalType": "address",
          "name": "operator",
          "type": "address"
        },
        {
          "internalType": "bool",
          "name": "approved",
          "type": "bool"
        }
      ],
      "name": "setApprovalForAll",
      "outputs": [],
      "stateMutability": "nonpayable",
      "type": "function"
    },
    {
      "inputs": [
        {
          "internalType": "bytes4",
          "name": "interfaceId",
          "type": "bytes4"
        }
      ],
      "name": "supportsInterface",
      "outputs": [
        {
          "internalType": "bool",
          "name": "",
          "type": "bool"
        }
      ],
      "stateMutability": "view",
      "type": "function"
    },
    {
      "inputs": [
        {
          "internalType": "address",
          "name": "newOwner",
          "type": "address"
        }
      ],
      "name": "transferOwnership",
      "outputs": [],
      "stateMutability": "nonpayable",
      "type": "function"
    },
    {
      "inputs": [
        {
          "internalType": "uint256",
          "name": "",
          "type": "uint256"
        }
      ],
      "name": "uri",
      "outputs": [
        {
          "internalType": "string",
          "name": "",
          "type": "string"
        }
      ],
      "stateMutability": "view",
      "type": "function"
    }
  ],
  "bytecode": "0x60806040523480156200001157600080fd5b5060405162001e5d38038062001e5d83398101604081905262000034916200054b565b80620000408162000099565b506200004c33620000b2565b60015b82811162000090576200007b33826001604051806020016040528060008152506200010460201b60201c565b8062000087816200073a565b9150506200004f565b5050506200082c565b8051620000ae90600290602084019062000474565b5050565b600380546001600160a01b038381166001600160a01b0319831681179093556040519116919082907f8be0079c531659141344cd1fd0a4f28419497f9722a3daafe3b4186f6b6457e090600090a35050565b6001600160a01b0384166200016a5760405162461bcd60e51b815260206004820152602160248201527f455243313135353a206d696e7420746f20746865207a65726f206164647265736044820152607360f81b60648201526084015b60405180910390fd5b336000620001788562000226565b90506000620001878562000226565b90506000868152602081815260408083206001600160a01b038b16845290915281208054879290620001bb90849062000680565b909155505060408051878152602081018790526001600160a01b03808a1692600092918716917fc3d58168c5ae7397731d063d5bbf3d657854427343f4c083240f7aacaa2d0f62910160405180910390a46200021d8360008989898962000288565b50505050505050565b604080516001808252818301909252606091600091906020808301908036833701905050905082816000815181106200026f57634e487b7160e01b600052603260045260246000fd5b602090810291909101015292915050565b505050505050565b620002a7846001600160a01b03166200046560201b620007201760201c565b15620002805760405163f23a6e6160e01b81526001600160a01b0385169063f23a6e6190620002e3908990899088908890889060040162000624565b602060405180830381600087803b158015620002fe57600080fd5b505af192505050801562000331575060408051601f3d908101601f191682019092526200032e918101906200051a565b60015b620003f2576200034062000784565b806308c379a01415620003815750620003586200079d565b8062000365575062000383565b8060405162461bcd60e51b81526004016200016191906200066b565b505b60405162461bcd60e51b815260206004820152603460248201527f455243313135353a207472616e7366657220746f206e6f6e204552433131353560448201527f526563656976657220696d706c656d656e746572000000000000000000000000606482015260840162000161565b6001600160e01b0319811663f23a6e6160e01b146200021d5760405162461bcd60e51b815260206004820152602860248201527f455243313135353a204552433131353552656365697665722072656a656374656044820152676420746f6b656e7360c01b606482015260840162000161565b6001600160a01b03163b151590565b8280546200048290620006ce565b90600052602060002090601f016020900481019282620004a65760008555620004f1565b82601f10620004c157805160ff1916838001178555620004f1565b82800160010185558215620004f1579182015b82811115620004f1578251825591602001919060010190620004d4565b50620004ff92915062000503565b5090565b5b80821115620004ff576000815560010162000504565b6000602082840312156200052c578081fd5b81516001600160e01b03198116811462000544578182fd5b9392505050565b600080604083850312156200055e578081fd5b825160208401519092506001600160401b03808211156200057d578283fd5b818501915085601f83011262000591578283fd5b815181811115620005a657620005a66200076e565b6040519150620005c1601f8201601f1916602001836200070b565b808252866020828501011115620005d6578384fd5b620005e98160208401602086016200069b565b5080925050509250929050565b60008151808452620006108160208601602086016200069b565b601f01601f19169290920160200192915050565b6001600160a01b03868116825285166020820152604081018490526060810183905260a0608082018190526000906200066090830184620005f6565b979650505050505050565b602081526000620005446020830184620005f6565b6000821982111562000696576200069662000758565b500190565b60005b83811015620006b85781810151838201526020016200069e565b83811115620006c8576000848401525b50505050565b600181811c90821680620006e357607f821691505b602082108114156200070557634e487b7160e01b600052602260045260246000fd5b50919050565b601f8201601f191681016001600160401b03811182821017156200073357620007336200076e565b6040525050565b600060001982141562000751576200075162000758565b5060010190565b634e487b7160e01b600052601160045260246000fd5b634e487b7160e01b600052604160045260246000fd5b600060033d11156200079a57600481823e5160e01c5b90565b600060443d1015620007ac5790565b6040516003193d81016004833e81513d6001600160401b038083116024840183101715620007dc57505050505090565b8285019150815181811115620007f55750505050505090565b843d8701016020828501011115620008105750505050505090565b62000821602082860101876200070b565b509095945050505050565b611621806200083c6000396000f3fe608060405234801561001057600080fd5b50600436106100a85760003560e01c8063715018a611610071578063715018a61461014b5780638da5cb5b14610153578063a22cb4651461016e578063e985e9c514610181578063f242432a146101bd578063f2fde38b146101d057600080fd5b8062fdd58e146100ad57806301ffc9a7146100d35780630e89341c146100f65780632eb2c2d6146101165780634e1273f41461012b575b600080fd5b6100c06100bb3660046110b1565b6101e3565b6040519081526020015b60405180910390f35b6100e66100e13660046111a5565b61027a565b60405190151581526020016100ca565b6101096101043660046111dd565b6102cc565b6040516100ca919061135e565b610129610124366004610f6e565b610360565b005b61013e6101393660046110da565b6103f7565b6040516100ca919061131d565b610129610559565b6003546040516001600160a01b0390911681526020016100ca565b61012961017c366004611077565b6105bf565b6100e661018f366004610f3c565b6001600160a01b03918216600090815260016020908152604080832093909416825291909152205460ff1690565b6101296101cb366004611014565b6105ce565b6101296101de366004610f1b565b610655565b60006001600160a01b0383166102545760405162461bcd60e51b815260206004820152602b60248201527f455243313135353a2062616c616e636520717565727920666f7220746865207a60448201526a65726f206164647265737360a81b60648201526084015b60405180910390fd5b506000908152602081815260408083206001600160a01b03949094168352929052205490565b60006001600160e01b03198216636cdb3d1360e11b14806102ab57506001600160e01b031982166303a24d0760e21b145b806102c657506301ffc9a760e01b6001600160e01b03198316145b92915050565b6060600280546102db90611484565b80601f016020809104026020016040519081016040528092919081815260200182805461030790611484565b80156103545780601f1061032957610100808354040283529160200191610354565b820191906000526020600020905b81548152906001019060200180831161033757829003601f168201915b50505050509050919050565b6001600160a01b03851633148061037c575061037c853361018f565b6103e35760405162461bcd60e51b815260206004820152603260248201527f455243313135353a207472616e736665722063616c6c6572206973206e6f74206044820152711bdddb995c881b9bdc88185c1c1c9bdd995960721b606482015260840161024b565b6103f0858585858561072f565b5050505050565b6060815183511461045c5760405162461bcd60e51b815260206004820152602960248201527f455243313135353a206163636f756e747320616e6420696473206c656e677468604482015268040dad2e6dac2e8c6d60bb1b606482015260840161024b565b6000835167ffffffffffffffff81111561048657634e487b7160e01b600052604160045260246000fd5b6040519080825280602002602001820160405280156104af578160200160208202803683370190505b50905060005b8451811015610551576105168582815181106104e157634e487b7160e01b600052603260045260246000fd5b602002602001015185838151811061050957634e487b7160e01b600052603260045260246000fd5b60200260200101516101e3565b82828151811061053657634e487b7160e01b600052603260045260246000fd5b602090810291909101015261054a816114ec565b90506104b5565b509392505050565b6003546001600160a01b031633146105b35760405162461bcd60e51b815260206004820181905260248201527f4f776e61626c653a2063616c6c6572206973206e6f7420746865206f776e6572604482015260640161024b565b6105bd6000610928565b565b6105ca33838361097a565b5050565b6001600160a01b0385163314806105ea57506105ea853361018f565b6106485760405162461bcd60e51b815260206004820152602960248201527f455243313135353a2063616c6c6572206973206e6f74206f776e6572206e6f7260448201526808185c1c1c9bdd995960ba1b606482015260840161024b565b6103f08585858585610a5b565b6003546001600160a01b031633146106af5760405162461bcd60e51b815260206004820181905260248201527f4f776e61626c653a2063616c6c6572206973206e6f7420746865206f776e6572604482015260640161024b565b6001600160a01b0381166107145760405162461bcd60e51b815260206004820152602660248201527f4f776e61626c653a206e6577206f776e657220697320746865207a65726f206160448201526564647265737360d01b606482015260840161024b565b61071d81610928565b50565b6001600160a01b03163b151590565b81518351146107915760405162461bcd60e51b815260206004820152602860248201527f455243313135353a2069647320616e6420616d6f756e7473206c656e677468206044820152670dad2e6dac2e8c6d60c31b606482015260840161024b565b6001600160a01b0384166107b75760405162461bcd60e51b815260040161024b906113b9565b3360005b84518110156108ba5760008582815181106107e657634e487b7160e01b600052603260045260246000fd5b60200260200101519050600085838151811061081257634e487b7160e01b600052603260045260246000fd5b602090810291909101810151600084815280835260408082206001600160a01b038e1683529093529190912054909150818110156108625760405162461bcd60e51b815260040161024b906113fe565b6000838152602081815260408083206001600160a01b038e8116855292528083208585039055908b1682528120805484929061089f90849061146c565b92505081905550505050806108b3906114ec565b90506107bb565b50846001600160a01b0316866001600160a01b0316826001600160a01b03167f4a39dc06d4c0dbc64b70af90fd698a233a518aa5d07e595d983b8c0526c8f7fb878760405161090a929190611330565b60405180910390a4610920818787878787610b85565b505050505050565b600380546001600160a01b038381166001600160a01b0319831681179093556040519116919082907f8be0079c531659141344cd1fd0a4f28419497f9722a3daafe3b4186f6b6457e090600090a35050565b816001600160a01b0316836001600160a01b031614156109ee5760405162461bcd60e51b815260206004820152602960248201527f455243313135353a2073657474696e6720617070726f76616c20737461747573604482015268103337b91039b2b63360b91b606482015260840161024b565b6001600160a01b03838116600081815260016020908152604080832094871680845294825291829020805460ff191686151590811790915591519182527f17307eab39ab6107e8899845ad3d59bd9653f200f220920489ca2b5937696c31910160405180910390a3505050565b6001600160a01b038416610a815760405162461bcd60e51b815260040161024b906113b9565b336000610a8d85610cf9565b90506000610a9a85610cf9565b90506000868152602081815260408083206001600160a01b038c16845290915290205485811015610add5760405162461bcd60e51b815260040161024b906113fe565b6000878152602081815260408083206001600160a01b038d8116855292528083208985039055908a16825281208054889290610b1a90849061146c565b909155505060408051888152602081018890526001600160a01b03808b16928c821692918816917fc3d58168c5ae7397731d063d5bbf3d657854427343f4c083240f7aacaa2d0f62910160405180910390a4610b7a848a8a8a8a8a610d52565b505050505050505050565b6001600160a01b0384163b156109205760405163bc197c8160e01b81526001600160a01b0385169063bc197c8190610bc9908990899088908890889060040161127a565b602060405180830381600087803b158015610be357600080fd5b505af1925050508015610c13575060408051601f3d908101601f19168201909252610c10918101906111c1565b60015b610cc057610c1f611533565b806308c379a01415610c595750610c3461154b565b80610c3f5750610c5b565b8060405162461bcd60e51b815260040161024b919061135e565b505b60405162461bcd60e51b815260206004820152603460248201527f455243313135353a207472616e7366657220746f206e6f6e20455243313135356044820152732932b1b2b4bb32b91034b6b83632b6b2b73a32b960611b606482015260840161024b565b6001600160e01b0319811663bc197c8160e01b14610cf05760405162461bcd60e51b815260040161024b90611371565b50505050505050565b60408051600180825281830190925260609160009190602080830190803683370190505090508281600081518110610d4157634e487b7160e01b600052603260045260246000fd5b602090810291909101015292915050565b6001600160a01b0384163b156109205760405163f23a6e6160e01b81526001600160a01b0385169063f23a6e6190610d9690899089908890889088906004016112d8565b602060405180830381600087803b158015610db057600080fd5b505af1925050508015610de0575060408051601f3d908101601f19168201909252610ddd918101906111c1565b60015b610dec57610c1f611533565b6001600160e01b0319811663f23a6e6160e01b14610cf05760405162461bcd60e51b815260040161024b90611371565b80356001600160a01b0381168114610e3357600080fd5b919050565b600082601f830112610e48578081fd5b81356020610e5582611448565b604051610e6282826114bf565b8381528281019150858301600585901b87018401881015610e81578586fd5b855b85811015610e9f57813584529284019290840190600101610e83565b5090979650505050505050565b600082601f830112610ebc578081fd5b813567ffffffffffffffff811115610ed657610ed661151d565b604051610eed601f8301601f1916602001826114bf565b818152846020838601011115610f01578283fd5b816020850160208301379081016020019190915292915050565b600060208284031215610f2c578081fd5b610f3582610e1c565b9392505050565b60008060408385031215610f4e578081fd5b610f5783610e1c565b9150610f6560208401610e1c565b90509250929050565b600080600080600060a08688031215610f85578081fd5b610f8e86610e1c565b9450610f9c60208701610e1c565b9350604086013567ffffffffffffffff80821115610fb8578283fd5b610fc489838a01610e38565b94506060880135915080821115610fd9578283fd5b610fe589838a01610e38565b93506080880135915080821115610ffa578283fd5b5061100788828901610eac565b9150509295509295909350565b600080600080600060a0868803121561102b578081fd5b61103486610e1c565b945061104260208701610e1c565b93506040860135925060608601359150608086013567ffffffffffffffff81111561106b578182fd5b61100788828901610eac565b60008060408385031215611089578182fd5b61109283610e1c565b9150602083013580151581146110a6578182fd5b809150509250929050565b600080604083850312156110c3578182fd5b6110cc83610e1c565b946020939093013593505050565b600080604083850312156110ec578182fd5b823567ffffffffffffffff80821115611103578384fd5b818501915085601f830112611116578384fd5b8135602061112382611448565b60405161113082826114bf565b8381528281019150858301600585901b870184018b101561114f578889fd5b8896505b848710156111785761116481610e1c565b835260019690960195918301918301611153565b509650508601359250508082111561118e578283fd5b5061119b85828601610e38565b9150509250929050565b6000602082840312156111b6578081fd5b8135610f35816115d5565b6000602082840312156111d2578081fd5b8151610f35816115d5565b6000602082840312156111ee578081fd5b5035919050565b6000815180845260208085019450808401835b8381101561122457815187529582019590820190600101611208565b509495945050505050565b60008151808452815b8181101561125457602081850181015186830182015201611238565b818111156112655782602083870101525b50601f01601f19169290920160200192915050565b6001600160a01b0386811682528516602082015260a0604082018190526000906112a6908301866111f5565b82810360608401526112b881866111f5565b905082810360808401526112cc818561122f565b98975050505050505050565b6001600160a01b03868116825285166020820152604081018490526060810183905260a0608082018190526000906113129083018461122f565b979650505050505050565b602081526000610f3560208301846111f5565b60408152600061134360408301856111f5565b828103602084015261135581856111f5565b95945050505050565b602081526000610f35602083018461122f565b60208082526028908201527f455243313135353a204552433131353552656365697665722072656a656374656040820152676420746f6b656e7360c01b606082015260800190565b60208082526025908201527f455243313135353a207472616e7366657220746f20746865207a65726f206164604082015264647265737360d81b606082015260800190565b6020808252602a908201527f455243313135353a20696e73756666696369656e742062616c616e636520666f60408201526939103a3930b739b332b960b11b606082015260800190565b600067ffffffffffffffff8211156114625761146261151d565b5060051b60200190565b6000821982111561147f5761147f611507565b500190565b600181811c9082168061149857607f821691505b602082108114156114b957634e487b7160e01b600052602260045260246000fd5b50919050565b601f8201601f1916810167ffffffffffffffff811182821017156114e5576114e561151d565b6040525050565b600060001982141561150057611500611507565b5060010190565b634e487b7160e01b600052601160045260246000fd5b634e487b7160e01b600052604160045260246000fd5b600060033d111561154857600481823e5160e01c5b90565b600060443d10156115595790565b6040516003193d81016004833e81513d67ffffffffffffffff816024840111818411171561158957505050505090565b82850191508151818111156115a15750505050505090565b843d87010160208285010111156115bb5750505050505090565b6115ca602082860101876114bf565b509095945050505050565b6001600160e01b03198116811461071d57600080fdfea264697066735822122082838b4efa89b13beb25890a37919cefd5b276b02f03e8f3773228703465aab564736f6c63430008040033",
  "linkReferences": {},
  "deployedLinkReferences": {}
}